{
  "contractName": "Dex",
  "abi": [
    {
      "anonymous": false,
      "inputs": [
        {
          "indexed": true,
          "internalType": "address",
          "name": "previousOwner",
          "type": "address"
        },
        {
          "indexed": true,
          "internalType": "address",
          "name": "newOwner",
          "type": "address"
        }
      ],
      "name": "OwnershipTransferred",
      "type": "event"
    },
    {
      "anonymous": false,
      "inputs": [
        {
          "indexed": true,
          "internalType": "address",
          "name": "",
          "type": "address"
        },
        {
          "indexed": false,
          "internalType": "string",
          "name": "",
          "type": "string"
        },
        {
          "indexed": true,
          "internalType": "uint256",
          "name": "",
          "type": "uint256"
        }
      ],
      "name": "depositETH",
      "type": "event"
    },
    {
      "anonymous": false,
      "inputs": [
        {
          "indexed": true,
          "internalType": "address",
          "name": "",
          "type": "address"
        },
        {
          "indexed": true,
          "internalType": "bytes32",
          "name": "",
          "type": "bytes32"
        },
        {
          "indexed": true,
          "internalType": "uint256",
          "name": "",
          "type": "uint256"
        }
      ],
      "name": "depositToken",
      "type": "event"
    },
    {
      "anonymous": false,
      "inputs": [
        {
          "indexed": true,
          "internalType": "address",
          "name": "",
          "type": "address"
        },
        {
          "indexed": true,
          "internalType": "bytes32",
          "name": "",
          "type": "bytes32"
        },
        {
          "indexed": true,
          "internalType": "uint256",
          "name": "",
          "type": "uint256"
        }
      ],
      "name": "withdrawToken",
      "type": "event"
    },
    {
      "inputs": [
        {
          "internalType": "uint256",
          "name": "",
          "type": "uint256"
        }
      ],
      "name": "TokenList",
      "outputs": [
        {
          "internalType": "bytes32",
          "name": "",
          "type": "bytes32"
        }
      ],
      "stateMutability": "view",
      "type": "function",
      "constant": true
    },
    {
      "inputs": [
        {
          "internalType": "bytes32",
          "name": "",
          "type": "bytes32"
        }
      ],
      "name": "TokenMapping",
      "outputs": [
        {
          "internalType": "bytes32",
          "name": "tiker",
          "type": "bytes32"
        },
        {
          "internalType": "address",
          "name": "tokenAddress",
          "type": "address"
        }
      ],
      "stateMutability": "view",
      "type": "function",
      "constant": true
    },
    {
      "inputs": [
        {
          "internalType": "bytes32",
          "name": "_tiker",
          "type": "bytes32"
        },
        {
          "internalType": "address",
          "name": "_tokenAddress",
          "type": "address"
        }
      ],
      "name": "addToken",
      "outputs": [],
      "stateMutability": "nonpayable",
      "type": "function"
    },
    {
      "inputs": [
        {
          "internalType": "address",
          "name": "",
          "type": "address"
        },
        {
          "internalType": "bytes32",
          "name": "",
          "type": "bytes32"
        }
      ],
      "name": "balances",
      "outputs": [
        {
          "internalType": "uint256",
          "name": "",
          "type": "uint256"
        }
      ],
      "stateMutability": "view",
      "type": "function",
      "constant": true
    },
    {
      "inputs": [
        {
          "internalType": "uint256",
          "name": "_amount",
          "type": "uint256"
        },
        {
          "internalType": "bytes32",
          "name": "_tiker",
          "type": "bytes32"
        }
      ],
      "name": "deposit",
      "outputs": [],
      "stateMutability": "nonpayable",
      "type": "function"
    },
    {
      "inputs": [],
      "name": "depositEth",
      "outputs": [],
      "stateMutability": "payable",
      "type": "function",
      "payable": true
    },
    {
      "inputs": [
        {
          "internalType": "bytes32",
          "name": "_tiker",
          "type": "bytes32"
        }
      ],
      "name": "getBalance",
      "outputs": [
        {
          "internalType": "uint256",
          "name": "",
          "type": "uint256"
        }
      ],
      "stateMutability": "view",
      "type": "function",
      "constant": true
    },
    {
      "inputs": [],
      "name": "owner",
      "outputs": [
        {
          "internalType": "address",
          "name": "",
          "type": "address"
        }
      ],
      "stateMutability": "view",
      "type": "function",
      "constant": true
    },
    {
      "inputs": [],
      "name": "renounceOwnership",
      "outputs": [],
      "stateMutability": "nonpayable",
      "type": "function"
    },
    {
      "inputs": [
        {
          "internalType": "address",
          "name": "newOwner",
          "type": "address"
        }
      ],
      "name": "transferOwnership",
      "outputs": [],
      "stateMutability": "nonpayable",
      "type": "function"
    },
    {
      "inputs": [
        {
          "internalType": "uint256",
          "name": "_amount",
          "type": "uint256"
        },
        {
          "internalType": "bytes32",
          "name": "_tiker",
          "type": "bytes32"
        }
      ],
      "name": "withdraw",
      "outputs": [],
      "stateMutability": "nonpayable",
      "type": "function"
    },
    {
      "inputs": [
        {
          "internalType": "bytes32",
          "name": "_tiker",
          "type": "bytes32"
        },
        {
          "internalType": "enum Dex.Side",
          "name": "_side",
          "type": "uint8"
        }
      ],
      "name": "getOrderBook",
      "outputs": [
        {
          "components": [
            {
              "internalType": "uint256",
              "name": "Id",
              "type": "uint256"
            },
            {
              "internalType": "address",
              "name": "Trader",
              "type": "address"
            },
            {
              "internalType": "enum Dex.Side",
              "name": "side",
              "type": "uint8"
            },
            {
              "internalType": "uint256",
              "name": "amount",
              "type": "uint256"
            },
            {
              "internalType": "uint256",
              "name": "price",
              "type": "uint256"
            },
            {
              "internalType": "bytes32",
              "name": "Tiker",
              "type": "bytes32"
            }
          ],
          "internalType": "struct Dex.Order[]",
          "name": "",
          "type": "tuple[]"
        }
      ],
      "stateMutability": "view",
      "type": "function",
      "constant": true
    },
    {
      "inputs": [
        {
          "internalType": "uint256",
          "name": "_amount",
          "type": "uint256"
        },
        {
          "internalType": "uint256",
          "name": "_price",
          "type": "uint256"
        },
        {
          "internalType": "bytes32",
          "name": "_tiker",
          "type": "bytes32"
        },
        {
          "internalType": "enum Dex.Side",
          "name": "_side",
          "type": "uint8"
        }
      ],
      "name": "createLimitOrder",
      "outputs": [],
      "stateMutability": "nonpayable",
      "type": "function"
    },
    {
      "inputs": [
        {
          "internalType": "uint256",
          "name": "_amount",
          "type": "uint256"
        },
        {
          "internalType": "bytes32",
          "name": "_tiker",
          "type": "bytes32"
        },
        {
          "internalType": "bytes32",
          "name": "_tikerExchange",
          "type": "bytes32"
        }
      ],
      "name": "createMarketOrder",
      "outputs": [],
      "stateMutability": "nonpayable",
      "type": "function"
    }
  ],
  "bytecode": "0x608060405260006005553480156200001657600080fd5b5060016000819055506200003f620000336200004560201b60201c565b6200004d60201b60201c565b62000113565b600033905090565b6000600160009054906101000a900473ffffffffffffffffffffffffffffffffffffffff16905081600160006101000a81548173ffffffffffffffffffffffffffffffffffffffff021916908373ffffffffffffffffffffffffffffffffffffffff1602179055508173ffffffffffffffffffffffffffffffffffffffff168173ffffffffffffffffffffffffffffffffffffffff167f8be0079c531659141344cd1fd0a4f28419497f9722a3daafe3b4186f6b6457e060405160405180910390a35050565b6133d680620001236000396000f3fe6080604052600436106100dd5760003560e01c80638e7394611161007f578063a8d2021a11610059578063a8d2021a1461029e578063ba58ea68146102c7578063c9630cb014610304578063f2fde38b1461032d576100dd565b80638e7394611461020f5780639776aacf1461024c5780639a5bf0c414610275576100dd565b8063715018a6116100bb578063715018a614610166578063789b102d1461017d5780638afd1e79146101bb5780638da5cb5b146101e4576100dd565b806303a53595146100e25780631f14df691461011f578063439370b11461015c575b600080fd5b3480156100ee57600080fd5b5061010960048036038101906101049190612a51565b610356565b6040516101169190612f6b565b60405180910390f35b34801561012b57600080fd5b506101466004803603810190610141919061294b565b61037a565b604051610153919061308f565b60405180910390f35b61016461039f565b005b34801561017257600080fd5b5061017b610475565b005b34801561018957600080fd5b506101a4600480360381019061019f91906129b0565b6104fd565b6040516101b2929190612f86565b60405180910390f35b3480156101c757600080fd5b506101e260048036038101906101dd9190612ab6565b610541565b005b3480156101f057600080fd5b506101f9610ea9565b6040516102069190612ece565b60405180910390f35b34801561021b57600080fd5b50610236600480360381019061023191906129b0565b610ed3565b604051610243919061308f565b60405180910390f35b34801561025857600080fd5b50610273600480360381019061026e91906129d9565b610f2d565b005b34801561028157600080fd5b5061029c60048036038101906102979190612b05565b6110be565b005b3480156102aa57600080fd5b506102c560048036038101906102c09190612a7a565b611f49565b005b3480156102d357600080fd5b506102ee60048036038101906102e99190612a15565b6122be565b6040516102fb9190612f49565b60405180910390f35b34801561031057600080fd5b5061032b60048036038101906103269190612a7a565b61247f565b005b34801561033957600080fd5b50610354600480360381019061034f9190612922565b6126f3565b005b6003818154811061036657600080fd5b906000526020600020016000915090505481565b6004602052816000526040600020602052806000526040600020600091509150505481565b34600460003373ffffffffffffffffffffffffffffffffffffffff1673ffffffffffffffffffffffffffffffffffffffff16815260200190815260200160002060007f45544800000000000000000000000000000000000000000000000000000000008152602001908152602001600020600082825461041f91906130f4565b92505081905550343373ffffffffffffffffffffffffffffffffffffffff167fb639aeb5bba5736e927320306313a31c4c065c554372450304b4f27263f90e5760405161046b9061300f565b60405180910390a3565b61047d6127eb565b73ffffffffffffffffffffffffffffffffffffffff1661049b610ea9565b73ffffffffffffffffffffffffffffffffffffffff16146104f1576040517f08c379a00000000000000000000000000000000000000000000000000000000081526004016104e890612fcf565b60405180910390fd5b6104fb60006127f3565b565b60026020528060005260406000206000915090508060000154908060010160009054906101000a900473ffffffffffffffffffffffffffffffffffffffff16905082565b60006006600084815260200190815260200160002060006001815260200190815260200160002090506000818054905014156105b2576040517f08c379a00000000000000000000000000000000000000000000000000000000081526004016105a99061302f565b60405180910390fd5b60008490506000805b8380549050811080156105ce5750600083115b15610bcd578284828154811061060d577f4e487b7100000000000000000000000000000000000000000000000000000000600052603260045260246000fd5b90600052602060002090600502016002015410156108f4576000848281548110610660577f4e487b7100000000000000000000000000000000000000000000000000000000600052603260045260246000fd5b9060005260206000209060050201600201548461067d91906131a4565b905060008583815481106106ba577f4e487b7100000000000000000000000000000000000000000000000000000000600052603260045260246000fd5b906000526020600020906005020160030154905081856106da91906131a4565b945081846106e891906130f4565b93506002600088815260200190815260200160002060010160009054906101000a900473ffffffffffffffffffffffffffffffffffffffff1673ffffffffffffffffffffffffffffffffffffffff166323b872dd3330848661074a919061314a565b6040518463ffffffff1660e01b815260040161076893929190612ee9565b602060405180830381600087803b15801561078257600080fd5b505af1158015610796573d6000803e3d6000fd5b505050506040513d601f19601f820116820180604052508101906107ba9190612987565b5060008684815481106107f6577f4e487b7100000000000000000000000000000000000000000000000000000000600052603260045260246000fd5b9060005260206000209060050201600201819055506000868481548110610846577f4e487b7100000000000000000000000000000000000000000000000000000000600052603260045260246000fd5b906000526020600020906005020160010160009054906101000a900473ffffffffffffffffffffffffffffffffffffffff1690508183610886919061314a565b600460008373ffffffffffffffffffffffffffffffffffffffff1673ffffffffffffffffffffffffffffffffffffffff16815260200190815260200160002060008a815260200190815260200160002060008282546108e591906130f4565b92505081905550505050610bba565b8284828154811061092e577f4e487b7100000000000000000000000000000000000000000000000000000000600052603260045260246000fd5b9060005260206000209060050201600201541115610bb95782848281548110610980577f4e487b7100000000000000000000000000000000000000000000000000000000600052603260045260246000fd5b906000526020600020906005020160020160008282546109a091906131a4565b9250508190555082826109b391906130f4565b915060008482815481106109f0577f4e487b7100000000000000000000000000000000000000000000000000000000600052603260045260246000fd5b90600052602060002090600502016003015490506002600087815260200190815260200160002060010160009054906101000a900473ffffffffffffffffffffffffffffffffffffffff1673ffffffffffffffffffffffffffffffffffffffff166323b872dd33308488610a64919061314a565b6040518463ffffffff1660e01b8152600401610a8293929190612ee9565b602060405180830381600087803b158015610a9c57600080fd5b505af1158015610ab0573d6000803e3d6000fd5b505050506040513d601f19601f82011682018060405250810190610ad49190612987565b506000858381548110610b10577f4e487b7100000000000000000000000000000000000000000000000000000000600052603260045260246000fd5b906000526020600020906005020160010160009054906101000a900473ffffffffffffffffffffffffffffffffffffffff1690508185610b50919061314a565b600460008373ffffffffffffffffffffffffffffffffffffffff1673ffffffffffffffffffffffffffffffffffffffff16815260200190815260200160002060008981526020019081526020016000206000828254610baf91906130f4565b9250508190555050505b5b8080610bc590613279565b9150506105bb565b505b60008380549050118015610c2e5750600083600081548110610c1a577f4e487b7100000000000000000000000000000000000000000000000000000000600052603260045260246000fd5b906000526020600020906005020160020154145b15610ea15760005b60018480549050610c4791906131a4565b811015610df05783600182610c5c91906130f4565b81548110610c93577f4e487b7100000000000000000000000000000000000000000000000000000000600052603260045260246000fd5b9060005260206000209060050201848281548110610cda577f4e487b7100000000000000000000000000000000000000000000000000000000600052603260045260246000fd5b9060005260206000209060050201600082015481600001556001820160009054906101000a900473ffffffffffffffffffffffffffffffffffffffff168160010160006101000a81548173ffffffffffffffffffffffffffffffffffffffff021916908373ffffffffffffffffffffffffffffffffffffffff1602179055506001820160149054906101000a900460ff168160010160146101000a81548160ff02191690836001811115610db7577f4e487b7100000000000000000000000000000000000000000000000000000000600052602160045260246000fd5b02179055506002820154816002015560038201548160030155600482015481600401559050508080610de890613279565b915050610c36565b5082805480610e28577f4e487b7100000000000000000000000000000000000000000000000000000000600052603160045260246000fd5b60019003818190600052602060002090600502016000808201600090556001820160006101000a81549073ffffffffffffffffffffffffffffffffffffffff02191690556001820160146101000a81549060ff021916905560028201600090556003820160009055600482016000905550509055610bcf565b505050505050565b6000600160009054906101000a900473ffffffffffffffffffffffffffffffffffffffff16905090565b6000600460003373ffffffffffffffffffffffffffffffffffffffff1673ffffffffffffffffffffffffffffffffffffffff1681526020019081526020016000206000838152602001908152602001600020549050919050565b60026000541415610f73576040517f08c379a0000000000000000000000000000000000000000000000000000000008152600401610f6a9061304f565b60405180910390fd5b6002600081905550610f836127eb565b73ffffffffffffffffffffffffffffffffffffffff16610fa1610ea9565b73ffffffffffffffffffffffffffffffffffffffff1614610ff7576040517f08c379a0000000000000000000000000000000000000000000000000000000008152600401610fee90612fcf565b60405180910390fd5b60405180604001604052808381526020018273ffffffffffffffffffffffffffffffffffffffff16815250600260008481526020019081526020016000206000820151816000015560208201518160010160006101000a81548173ffffffffffffffffffffffffffffffffffffffff021916908373ffffffffffffffffffffffffffffffffffffffff160217905550905050600382908060018154018082558091505060019003906000526020600020016000909190919091505560016000819055505050565b8060018111156110f7577f4e487b7100000000000000000000000000000000000000000000000000000000600052602160045260246000fd5b60006001811115611131577f4e487b7100000000000000000000000000000000000000000000000000000000600052602160045260246000fd5b14156111c4578284611143919061314a565b600460003373ffffffffffffffffffffffffffffffffffffffff1673ffffffffffffffffffffffffffffffffffffffff16815260200190815260200160002060007f455448000000000000000000000000000000000000000000000000000000000081526020019081526020016000205410156111bf57600080fd5b61129b565b8060018111156111fd577f4e487b7100000000000000000000000000000000000000000000000000000000600052602160045260246000fd5b600180811115611236577f4e487b7100000000000000000000000000000000000000000000000000000000600052602160045260246000fd5b141561129a5783600460003373ffffffffffffffffffffffffffffffffffffffff1673ffffffffffffffffffffffffffffffffffffffff168152602001908152602001600020600084815260200190815260200160002054101561129957600080fd5b5b5b60006006600084815260200190815260200160002060008360018111156112eb577f4e487b7100000000000000000000000000000000000000000000000000000000600052602160045260246000fd5b81526020019081526020016000209050806040518060c0016040528060055481526020013373ffffffffffffffffffffffffffffffffffffffff168152602001846001811115611364577f4e487b7100000000000000000000000000000000000000000000000000000000600052602160045260246000fd5b81526020018781526020018681526020018581525090806001815401808255809150506001900390600052602060002090600502016000909190919091506000820151816000015560208201518160010160006101000a81548173ffffffffffffffffffffffffffffffffffffffff021916908373ffffffffffffffffffffffffffffffffffffffff16021790555060408201518160010160146101000a81548160ff02191690836001811115611444577f4e487b7100000000000000000000000000000000000000000000000000000000600052602160045260246000fd5b0217905550606082015181600201556080820151816003015560a08201518160040155505060008082805490501161147d57600061148f565b6001828054905061148e91906131a4565b5b90508260018111156114ca577f4e487b7100000000000000000000000000000000000000000000000000000000600052602160045260246000fd5b60006001811115611504577f4e487b7100000000000000000000000000000000000000000000000000000000600052602160045260246000fd5b14156119df575b60008111156119da5781818154811061154d577f4e487b7100000000000000000000000000000000000000000000000000000000600052603260045260246000fd5b9060005260206000209060050201600301548260018361156d91906131a4565b815481106115a4577f4e487b7100000000000000000000000000000000000000000000000000000000600052603260045260246000fd5b90600052602060002090600502016003015411156115c1576119da565b6000826001836115d191906131a4565b81548110611608577f4e487b7100000000000000000000000000000000000000000000000000000000600052603260045260246000fd5b90600052602060002090600502016040518060c0016040529081600082015481526020016001820160009054906101000a900473ffffffffffffffffffffffffffffffffffffffff1673ffffffffffffffffffffffffffffffffffffffff1673ffffffffffffffffffffffffffffffffffffffff1681526020016001820160149054906101000a900460ff1660018111156116cc577f4e487b7100000000000000000000000000000000000000000000000000000000600052602160045260246000fd5b6001811115611704577f4e487b7100000000000000000000000000000000000000000000000000000000600052602160045260246000fd5b815260200160028201548152602001600382015481526020016004820154815250509050828281548110611761577f4e487b7100000000000000000000000000000000000000000000000000000000600052603260045260246000fd5b906000526020600020906005020183838461177c91906131a4565b815481106117b3577f4e487b7100000000000000000000000000000000000000000000000000000000600052603260045260246000fd5b9060005260206000209060050201600082015481600001556001820160009054906101000a900473ffffffffffffffffffffffffffffffffffffffff168160010160006101000a81548173ffffffffffffffffffffffffffffffffffffffff021916908373ffffffffffffffffffffffffffffffffffffffff1602179055506001820160149054906101000a900460ff168160010160146101000a81548160ff02191690836001811115611890577f4e487b7100000000000000000000000000000000000000000000000000000000600052602160045260246000fd5b0217905550600282015481600201556003820154816003015560048201548160040155905050808383815481106118f0577f4e487b7100000000000000000000000000000000000000000000000000000000600052603260045260246000fd5b90600052602060002090600502016000820151816000015560208201518160010160006101000a81548173ffffffffffffffffffffffffffffffffffffffff021916908373ffffffffffffffffffffffffffffffffffffffff16021790555060408201518160010160146101000a81548160ff021916908360018111156119a0577f4e487b7100000000000000000000000000000000000000000000000000000000600052602160045260246000fd5b0217905550606082015181600201556080820151816003015560a0820151816004015590505081806119d19061324f565b9250505061150b565b611f29565b826001811115611a18577f4e487b7100000000000000000000000000000000000000000000000000000000600052602160045260246000fd5b600180811115611a51577f4e487b7100000000000000000000000000000000000000000000000000000000600052602160045260246000fd5b1415611f28575b6000811115611f2757818181548110611a9a577f4e487b7100000000000000000000000000000000000000000000000000000000600052603260045260246000fd5b90600052602060002090600502016003015482600183611aba91906131a4565b81548110611af1577f4e487b7100000000000000000000000000000000000000000000000000000000600052603260045260246000fd5b9060005260206000209060050201600301541015611b0e57611f27565b600082600183611b1e91906131a4565b81548110611b55577f4e487b7100000000000000000000000000000000000000000000000000000000600052603260045260246000fd5b90600052602060002090600502016040518060c0016040529081600082015481526020016001820160009054906101000a900473ffffffffffffffffffffffffffffffffffffffff1673ffffffffffffffffffffffffffffffffffffffff1673ffffffffffffffffffffffffffffffffffffffff1681526020016001820160149054906101000a900460ff166001811115611c19577f4e487b7100000000000000000000000000000000000000000000000000000000600052602160045260246000fd5b6001811115611c51577f4e487b7100000000000000000000000000000000000000000000000000000000600052602160045260246000fd5b815260200160028201548152602001600382015481526020016004820154815250509050828281548110611cae577f4e487b7100000000000000000000000000000000000000000000000000000000600052603260045260246000fd5b9060005260206000209060050201838384611cc991906131a4565b81548110611d00577f4e487b7100000000000000000000000000000000000000000000000000000000600052603260045260246000fd5b9060005260206000209060050201600082015481600001556001820160009054906101000a900473ffffffffffffffffffffffffffffffffffffffff168160010160006101000a81548173ffffffffffffffffffffffffffffffffffffffff021916908373ffffffffffffffffffffffffffffffffffffffff1602179055506001820160149054906101000a900460ff168160010160146101000a81548160ff02191690836001811115611ddd577f4e487b7100000000000000000000000000000000000000000000000000000000600052602160045260246000fd5b021790555060028201548160020155600382015481600301556004820154816004015590505080838381548110611e3d577f4e487b7100000000000000000000000000000000000000000000000000000000600052603260045260246000fd5b90600052602060002090600502016000820151816000015560208201518160010160006101000a81548173ffffffffffffffffffffffffffffffffffffffff021916908373ffffffffffffffffffffffffffffffffffffffff16021790555060408201518160010160146101000a81548160ff02191690836001811115611eed577f4e487b7100000000000000000000000000000000000000000000000000000000600052602160045260246000fd5b0217905550606082015181600201556080820151816003015560a082015181600401559050508180611f1e9061324f565b92505050611a58565b5b5b60056000815480929190611f3c90613279565b9190505550505050505050565b60026000541415611f8f576040517f08c379a0000000000000000000000000000000000000000000000000000000008152600401611f869061304f565b60405180910390fd5b600260008190555080600073ffffffffffffffffffffffffffffffffffffffff166002600083815260200190815260200160002060010160009054906101000a900473ffffffffffffffffffffffffffffffffffffffff1673ffffffffffffffffffffffffffffffffffffffff16141561203e576040517f08c379a00000000000000000000000000000000000000000000000000000000081526004016120359061306f565b60405180910390fd5b600073ffffffffffffffffffffffffffffffffffffffff166002600084815260200190815260200160002060010160009054906101000a900473ffffffffffffffffffffffffffffffffffffffff1673ffffffffffffffffffffffffffffffffffffffff1614156120ae57600080fd5b82600460003373ffffffffffffffffffffffffffffffffffffffff1673ffffffffffffffffffffffffffffffffffffffff1681526020019081526020016000206000848152602001908152602001600020541015612141576040517f08c379a000000000000000000000000000000000000000000000000000000000815260040161213890612fef565b60405180910390fd5b82600460003373ffffffffffffffffffffffffffffffffffffffff1673ffffffffffffffffffffffffffffffffffffffff168152602001908152602001600020600084815260200190815260200160002060008282546121a191906131a4565b925050819055506002600083815260200190815260200160002060010160009054906101000a900473ffffffffffffffffffffffffffffffffffffffff1673ffffffffffffffffffffffffffffffffffffffff1663a9059cbb33856040518363ffffffff1660e01b8152600401612219929190612f20565b602060405180830381600087803b15801561223357600080fd5b505af1158015612247573d6000803e3d6000fd5b505050506040513d601f19601f8201168201806040525081019061226b9190612987565b5082823373ffffffffffffffffffffffffffffffffffffffff167f063577528b6a04e7baf0209a367b8f3015ba3ef537417422d911d6549c2f04f060405160405180910390a45060016000819055505050565b606060066000848152602001908152602001600020600083600181111561230e577f4e487b7100000000000000000000000000000000000000000000000000000000600052602160045260246000fd5b8152602001908152602001600020805480602002602001604051908101604052809291908181526020016000905b8282101561247357838290600052602060002090600502016040518060c0016040529081600082015481526020016001820160009054906101000a900473ffffffffffffffffffffffffffffffffffffffff1673ffffffffffffffffffffffffffffffffffffffff1673ffffffffffffffffffffffffffffffffffffffff1681526020016001820160149054906101000a900460ff16600181111561240a577f4e487b7100000000000000000000000000000000000000000000000000000000600052602160045260246000fd5b6001811115612442577f4e487b7100000000000000000000000000000000000000000000000000000000600052602160045260246000fd5b815260200160028201548152602001600382015481526020016004820154815250508152602001906001019061233c565b50505050905092915050565b600260005414156124c5576040517f08c379a00000000000000000000000000000000000000000000000000000000081526004016124bc9061304f565b60405180910390fd5b600260008190555080600073ffffffffffffffffffffffffffffffffffffffff166002600083815260200190815260200160002060010160009054906101000a900473ffffffffffffffffffffffffffffffffffffffff1673ffffffffffffffffffffffffffffffffffffffff161415612574576040517f08c379a000000000000000000000000000000000000000000000000000000000815260040161256b9061306f565b60405180910390fd5b6002600083815260200190815260200160002060010160009054906101000a900473ffffffffffffffffffffffffffffffffffffffff1673ffffffffffffffffffffffffffffffffffffffff166323b872dd3330866040518463ffffffff1660e01b81526004016125e793929190612ee9565b602060405180830381600087803b15801561260157600080fd5b505af1158015612615573d6000803e3d6000fd5b505050506040513d601f19601f820116820180604052508101906126399190612987565b5082600460003373ffffffffffffffffffffffffffffffffffffffff1673ffffffffffffffffffffffffffffffffffffffff1681526020019081526020016000206000848152602001908152602001600020600082825461269a91906130f4565b9250508190555082823373ffffffffffffffffffffffffffffffffffffffff167f68205ba09fddbae42e0f29dad87871950d66bc23934c58e1504869c99cd692f560405160405180910390a45060016000819055505050565b6126fb6127eb565b73ffffffffffffffffffffffffffffffffffffffff16612719610ea9565b73ffffffffffffffffffffffffffffffffffffffff161461276f576040517f08c379a000000000000000000000000000000000000000000000000000000000815260040161276690612fcf565b60405180910390fd5b600073ffffffffffffffffffffffffffffffffffffffff168173ffffffffffffffffffffffffffffffffffffffff1614156127df576040517f08c379a00000000000000000000000000000000000000000000000000000000081526004016127d690612faf565b60405180910390fd5b6127e8816127f3565b50565b600033905090565b6000600160009054906101000a900473ffffffffffffffffffffffffffffffffffffffff16905081600160006101000a81548173ffffffffffffffffffffffffffffffffffffffff021916908373ffffffffffffffffffffffffffffffffffffffff1602179055508173ffffffffffffffffffffffffffffffffffffffff168173ffffffffffffffffffffffffffffffffffffffff167f8be0079c531659141344cd1fd0a4f28419497f9722a3daafe3b4186f6b6457e060405160405180910390a35050565b6000813590506128c881613334565b92915050565b6000815190506128dd8161334b565b92915050565b6000813590506128f281613362565b92915050565b60008135905061290781613379565b92915050565b60008135905061291c81613389565b92915050565b60006020828403121561293457600080fd5b6000612942848285016128b9565b91505092915050565b6000806040838503121561295e57600080fd5b600061296c858286016128b9565b925050602061297d858286016128e3565b9150509250929050565b60006020828403121561299957600080fd5b60006129a7848285016128ce565b91505092915050565b6000602082840312156129c257600080fd5b60006129d0848285016128e3565b91505092915050565b600080604083850312156129ec57600080fd5b60006129fa858286016128e3565b9250506020612a0b858286016128b9565b9150509250929050565b60008060408385031215612a2857600080fd5b6000612a36858286016128e3565b9250506020612a47858286016128f8565b9150509250929050565b600060208284031215612a6357600080fd5b6000612a718482850161290d565b91505092915050565b60008060408385031215612a8d57600080fd5b6000612a9b8582860161290d565b9250506020612aac858286016128e3565b9150509250929050565b600080600060608486031215612acb57600080fd5b6000612ad98682870161290d565b9350506020612aea868287016128e3565b9250506040612afb868287016128e3565b9150509250925092565b60008060008060808587031215612b1b57600080fd5b6000612b298782880161290d565b9450506020612b3a8782880161290d565b9350506040612b4b878288016128e3565b9250506060612b5c878288016128f8565b91505092959194509250565b6000612b748383612e35565b60c08301905092915050565b612b89816131d8565b82525050565b612b98816131d8565b82525050565b6000612ba9826130ba565b612bb381856130d2565b9350612bbe836130aa565b8060005b83811015612bef578151612bd68882612b68565b9750612be1836130c5565b925050600181019050612bc2565b5085935050505092915050565b612c05816131f6565b82525050565b612c14816131f6565b82525050565b612c238161323d565b82525050565b6000612c366026836130e3565b91507f4f776e61626c653a206e6577206f776e657220697320746865207a65726f206160008301527f64647265737300000000000000000000000000000000000000000000000000006020830152604082019050919050565b6000612c9c6020836130e3565b91507f4f776e61626c653a2063616c6c6572206973206e6f7420746865206f776e65726000830152602082019050919050565b6000612cdc6013836130e3565b91507f62616c616e636520696e737566666963656e74000000000000000000000000006000830152602082019050919050565b6000612d1c6003836130e3565b91507f45544800000000000000000000000000000000000000000000000000000000006000830152602082019050919050565b6000612d5c6028836130e3565b91507f4f72646572206e6f742070726573656e74206f72207468697320616d6f756e7460008301527f206f6620636f696e0000000000000000000000000000000000000000000000006020830152604082019050919050565b6000612dc2601f836130e3565b91507f5265656e7472616e637947756172643a207265656e7472616e742063616c6c006000830152602082019050919050565b6000612e026014836130e3565b91507f746f6b656e20646f6573206e6f742065786973740000000000000000000000006000830152602082019050919050565b60c082016000820151612e4b6000850182612eb0565b506020820151612e5e6020850182612b80565b506040820151612e716040850182612c1a565b506060820151612e846060850182612eb0565b506080820151612e976080850182612eb0565b5060a0820151612eaa60a0850182612bfc565b50505050565b612eb981613233565b82525050565b612ec881613233565b82525050565b6000602082019050612ee36000830184612b8f565b92915050565b6000606082019050612efe6000830186612b8f565b612f0b6020830185612b8f565b612f186040830184612ebf565b949350505050565b6000604082019050612f356000830185612b8f565b612f426020830184612ebf565b9392505050565b60006020820190508181036000830152612f638184612b9e565b905092915050565b6000602082019050612f806000830184612c0b565b92915050565b6000604082019050612f9b6000830185612c0b565b612fa86020830184612b8f565b9392505050565b60006020820190508181036000830152612fc881612c29565b9050919050565b60006020820190508181036000830152612fe881612c8f565b9050919050565b6000602082019050818103600083015261300881612ccf565b9050919050565b6000602082019050818103600083015261302881612d0f565b9050919050565b6000602082019050818103600083015261304881612d4f565b9050919050565b6000602082019050818103600083015261306881612db5565b9050919050565b6000602082019050818103600083015261308881612df5565b9050919050565b60006020820190506130a46000830184612ebf565b92915050565b6000819050602082019050919050565b600081519050919050565b6000602082019050919050565b600082825260208201905092915050565b600082825260208201905092915050565b60006130ff82613233565b915061310a83613233565b9250827fffffffffffffffffffffffffffffffffffffffffffffffffffffffffffffffff0382111561313f5761313e6132c2565b5b828201905092915050565b600061315582613233565b915061316083613233565b9250817fffffffffffffffffffffffffffffffffffffffffffffffffffffffffffffffff0483118215151615613199576131986132c2565b5b828202905092915050565b60006131af82613233565b91506131ba83613233565b9250828210156131cd576131cc6132c2565b5b828203905092915050565b60006131e382613213565b9050919050565b60008115159050919050565b6000819050919050565b600081905061320e82613320565b919050565b600073ffffffffffffffffffffffffffffffffffffffff82169050919050565b6000819050919050565b600061324882613200565b9050919050565b600061325a82613233565b9150600082141561326e5761326d6132c2565b5b600182039050919050565b600061328482613233565b91507fffffffffffffffffffffffffffffffffffffffffffffffffffffffffffffffff8214156132b7576132b66132c2565b5b600182019050919050565b7f4e487b7100000000000000000000000000000000000000000000000000000000600052601160045260246000fd5b7f4e487b7100000000000000000000000000000000000000000000000000000000600052602160045260246000fd5b60028110613331576133306132f1565b5b50565b61333d816131d8565b811461334857600080fd5b50565b613354816131ea565b811461335f57600080fd5b50565b61336b816131f6565b811461337657600080fd5b50565b6002811061338657600080fd5b50565b61339281613233565b811461339d57600080fd5b5056fea264697066735822122080ed6b6710d22ee062e6909f7d2fd4304b4407a253ac4f89ec2699921b718ecd64736f6c63430008000033",
  "immutableReferences": {},
  "source": "// SPDX-License-Identifier: Leluk911\npragma solidity 0.8.0;\n//pragma experimental ABIEncoderV2;\n\nimport \"./wallet.sol\";\n\ncontract Dex is Wallet {\n    enum Side {\n        BUY,\n        SELL\n    }\n\n    struct Order {\n        uint256 Id;\n        address Trader;\n        Side side;\n        uint256 amount;\n        uint256 price;\n        bytes32 Tiker;\n    }\n    uint256 NewID = 0;\n\n    mapping(bytes32 => mapping(uint256 => Order[])) OrderBook;\n\n    function getOrderBook(bytes32 _tiker, Side _side)\n        external\n        view\n        returns (Order[] memory)\n    {\n        return OrderBook[_tiker][uint256(_side)];\n    }\n\n    function createLimitOrder(\n        uint256 _amount,\n        uint256 _price,\n        bytes32 _tiker,\n        Side _side\n    ) external {\n        //tokenExist(_tiker) {\n        if (Side.BUY == _side) {\n            require(balances[msg.sender][\"ETH\"] >= _amount * _price);\n        } else if (Side.SELL == _side) {\n            require(balances[msg.sender][_tiker] >= _amount);\n        }\n        Order[] storage orders = OrderBook[_tiker][uint256(_side)];\n        orders.push(Order(NewID, msg.sender, _side, _amount, _price, _tiker));\n\n        uint256 i = orders.length > 0 ? orders.length - 1 : 0;\n        if (Side.BUY == _side) {\n            while (i > 0) {\n                if (orders[i - 1].price > orders[i].price) {\n                    break;\n                }\n                Order memory ordersMove = orders[i - 1];\n                orders[i - i] = orders[i];\n                orders[i] = ordersMove;\n                i--;\n            }\n        } else if (Side.SELL == _side) {\n            while (i > 0) {\n                if (orders[i - 1].price < orders[i].price) {\n                    break;\n                }\n                Order memory ordersMove = orders[i - 1];\n                orders[i - i] = orders[i];\n                orders[i] = ordersMove;\n                i--;\n            }\n        }\n        NewID++;\n    }\n\n    // diamo per scontato ke la coppia si DAI/ETH\n    function createMarketOrder(\n        uint256 _amount,\n        bytes32 _tiker,\n        bytes32 _tikerExchange\n    ) external {\n        // array da usare\n        Order[] storage orderSide = OrderBook[_tiker][1];\n        // se nn ci sono ordini ci mandi indietro\n        if (orderSide.length == 0) {\n            revert(\"Order not present or this amount of coin\");\n        }\n        // variabili per gestire l'rodine d'acquisto\n        uint256 orderMArketLeft = _amount;\n        uint256 orderMarketComplete = 0;\n\n        // ciclo per pescare gli ordini nell array\n\n        for (\n            uint256 index = 0;\n            index < orderSide.length && orderMArketLeft > 0;\n            index++\n        ) {\n            // se l'rodine che peschiamo  non completa il nostro ordine rimanente\n            if (orderSide[index].amount < orderMArketLeft) {\n                // variabile che  ci da la differenza per aggiornare le variabili e inviare i soldi\n                // aggiorniamo l'orderbook\n                uint256 orderMarketPending = orderMArketLeft -\n                    orderSide[index].amount;\n                uint256 price = orderSide[index].price;\n                // aggiornamenyo variabili per il prossimo ciclo\n                orderMArketLeft -= orderMarketPending;\n                orderMarketComplete += orderMarketPending;\n                // trasferimento soldi dall user al wallet dell'order\n                //------> PS deve prima approvare la spesa\n                IERC20(TokenMapping[_tikerExchange].tokenAddress).transferFrom(\n                    msg.sender,\n                    address(this),\n                    orderMarketPending * price\n                );\n\n                // aggiorniamo il bilancio del orderSeller\n                orderSide[index].amount = 0;\n\n                address OrderSeller = orderSide[index].Trader;\n                balances[OrderSeller][_tikerExchange] +=\n                    orderMarketPending *\n                    price;\n                //revert(\" mi blocco qui al pimo if\");\n            } else if (orderSide[index].amount > orderMArketLeft) {\n                // qua togliamo solo l'amount dall'ordine che rimane aperto comunque\n                orderSide[index].amount -= orderMArketLeft;\n                // riempiamo la variabile di completamento\n                orderMarketComplete += orderMArketLeft;\n                // operazioni di spostamento token\n                uint256 price = orderSide[index].price;\n                //------> PS deve prima approvare la spesa\n                IERC20(TokenMapping[_tikerExchange].tokenAddress).transferFrom(\n                    msg.sender,\n                    address(this),\n                    orderMArketLeft * price\n                ); // aggiorniamo l'orderbook\n\n                // aggiorniamo il bilancio del orderSeller\n                address OrderSeller = orderSide[index].Trader;\n                balances[OrderSeller][_tikerExchange] +=\n                    orderMArketLeft *\n                    price;\n                //revert(\" mi blocco qui al secondo if\");\n            }\n        }\n\n        while (orderSide.length > 0 && orderSide[0].amount == 0) {\n            for (uint256 i = 0; i < orderSide.length - 1; i++) {\n                orderSide[i] = orderSide[i + 1];\n            }\n            orderSide.pop();\n        }\n    }\n}\n",
  "sourcePath": "/Users/lucianodinoia/Desktop/moralis Academy/Ethereum Smart Contract Programming 201/Build Dex step by step/contracts/Dex.sol",
  "compiler": {
    "name": "solc",
    "version": "0.8.0+commit.c7dfd78e.Emscripten.clang"
  },
  "schemaVersion": "3.4.4",
  "updatedAt": "2022-02-28T19:51:22.493Z",
  "networkType": "ethereum",
  "devdoc": {
    "kind": "dev",
    "methods": {
      "owner()": {
        "details": "Returns the address of the current owner."
      },
      "renounceOwnership()": {
        "details": "Leaves the contract without owner. It will not be possible to call `onlyOwner` functions anymore. Can only be called by the current owner. NOTE: Renouncing ownership will leave the contract without an owner, thereby removing any functionality that is only available to the owner."
      },
      "transferOwnership(address)": {
        "details": "Transfers ownership of the contract to a new account (`newOwner`). Can only be called by the current owner."
      }
    },
    "version": 1
  },
  "userdoc": {
    "kind": "user",
    "methods": {},
    "version": 1
  }
}