{
  "contractName": "Dex2",
  "abi": [
    {
      "anonymous": false,
      "inputs": [
        {
          "indexed": true,
          "internalType": "address",
          "name": "previousOwner",
          "type": "address"
        },
        {
          "indexed": true,
          "internalType": "address",
          "name": "newOwner",
          "type": "address"
        }
      ],
      "name": "OwnershipTransferred",
      "type": "event"
    },
    {
      "anonymous": false,
      "inputs": [
        {
          "indexed": true,
          "internalType": "address",
          "name": "",
          "type": "address"
        },
        {
          "indexed": false,
          "internalType": "string",
          "name": "",
          "type": "string"
        },
        {
          "indexed": true,
          "internalType": "uint256",
          "name": "",
          "type": "uint256"
        }
      ],
      "name": "depositETH",
      "type": "event"
    },
    {
      "anonymous": false,
      "inputs": [
        {
          "indexed": true,
          "internalType": "address",
          "name": "",
          "type": "address"
        },
        {
          "indexed": true,
          "internalType": "bytes32",
          "name": "",
          "type": "bytes32"
        },
        {
          "indexed": true,
          "internalType": "uint256",
          "name": "",
          "type": "uint256"
        }
      ],
      "name": "depositToken",
      "type": "event"
    },
    {
      "anonymous": false,
      "inputs": [
        {
          "indexed": true,
          "internalType": "address",
          "name": "",
          "type": "address"
        },
        {
          "indexed": true,
          "internalType": "bytes32",
          "name": "",
          "type": "bytes32"
        },
        {
          "indexed": true,
          "internalType": "uint256",
          "name": "",
          "type": "uint256"
        }
      ],
      "name": "withdrawToken",
      "type": "event"
    },
    {
      "inputs": [
        {
          "internalType": "bytes32",
          "name": "",
          "type": "bytes32"
        },
        {
          "internalType": "uint256",
          "name": "",
          "type": "uint256"
        },
        {
          "internalType": "uint256",
          "name": "",
          "type": "uint256"
        }
      ],
      "name": "OrderBook",
      "outputs": [
        {
          "internalType": "uint256",
          "name": "Id",
          "type": "uint256"
        },
        {
          "internalType": "address",
          "name": "Trader",
          "type": "address"
        },
        {
          "internalType": "bool",
          "name": "buyOrder",
          "type": "bool"
        },
        {
          "internalType": "uint256",
          "name": "amount",
          "type": "uint256"
        },
        {
          "internalType": "uint256",
          "name": "price",
          "type": "uint256"
        },
        {
          "internalType": "bytes32",
          "name": "Tiker",
          "type": "bytes32"
        },
        {
          "internalType": "bool",
          "name": "execute",
          "type": "bool"
        }
      ],
      "stateMutability": "view",
      "type": "function"
    },
    {
      "inputs": [
        {
          "internalType": "uint256",
          "name": "",
          "type": "uint256"
        }
      ],
      "name": "TokenList",
      "outputs": [
        {
          "internalType": "bytes32",
          "name": "",
          "type": "bytes32"
        }
      ],
      "stateMutability": "view",
      "type": "function"
    },
    {
      "inputs": [
        {
          "internalType": "bytes32",
          "name": "",
          "type": "bytes32"
        }
      ],
      "name": "TokenMapping",
      "outputs": [
        {
          "internalType": "bytes32",
          "name": "tiker",
          "type": "bytes32"
        },
        {
          "internalType": "address",
          "name": "tokenAddress",
          "type": "address"
        }
      ],
      "stateMutability": "view",
      "type": "function"
    },
    {
      "inputs": [
        {
          "internalType": "bytes32",
          "name": "_tiker",
          "type": "bytes32"
        },
        {
          "internalType": "address",
          "name": "_tokenAddress",
          "type": "address"
        }
      ],
      "name": "addToken",
      "outputs": [],
      "stateMutability": "nonpayable",
      "type": "function"
    },
    {
      "inputs": [
        {
          "internalType": "address",
          "name": "",
          "type": "address"
        },
        {
          "internalType": "bytes32",
          "name": "",
          "type": "bytes32"
        }
      ],
      "name": "balances",
      "outputs": [
        {
          "internalType": "uint256",
          "name": "",
          "type": "uint256"
        }
      ],
      "stateMutability": "view",
      "type": "function"
    },
    {
      "inputs": [
        {
          "internalType": "uint256",
          "name": "",
          "type": "uint256"
        },
        {
          "internalType": "bytes32",
          "name": "",
          "type": "bytes32"
        },
        {
          "internalType": "uint256",
          "name": "",
          "type": "uint256"
        }
      ],
      "name": "buyOrder",
      "outputs": [
        {
          "internalType": "uint256",
          "name": "Id",
          "type": "uint256"
        },
        {
          "internalType": "address",
          "name": "Trader",
          "type": "address"
        },
        {
          "internalType": "bool",
          "name": "buyOrder",
          "type": "bool"
        },
        {
          "internalType": "uint256",
          "name": "amount",
          "type": "uint256"
        },
        {
          "internalType": "uint256",
          "name": "price",
          "type": "uint256"
        },
        {
          "internalType": "bytes32",
          "name": "Tiker",
          "type": "bytes32"
        },
        {
          "internalType": "bool",
          "name": "execute",
          "type": "bool"
        }
      ],
      "stateMutability": "view",
      "type": "function"
    },
    {
      "inputs": [
        {
          "internalType": "uint256",
          "name": "_amount",
          "type": "uint256"
        },
        {
          "internalType": "bytes32",
          "name": "_tiker",
          "type": "bytes32"
        }
      ],
      "name": "deposit",
      "outputs": [],
      "stateMutability": "nonpayable",
      "type": "function"
    },
    {
      "inputs": [],
      "name": "depositEth",
      "outputs": [],
      "stateMutability": "payable",
      "type": "function"
    },
    {
      "inputs": [
        {
          "internalType": "bytes32",
          "name": "_tiker",
          "type": "bytes32"
        }
      ],
      "name": "getBalance",
      "outputs": [
        {
          "internalType": "uint256",
          "name": "",
          "type": "uint256"
        }
      ],
      "stateMutability": "view",
      "type": "function"
    },
    {
      "inputs": [],
      "name": "owner",
      "outputs": [
        {
          "internalType": "address",
          "name": "",
          "type": "address"
        }
      ],
      "stateMutability": "view",
      "type": "function"
    },
    {
      "inputs": [],
      "name": "renounceOwnership",
      "outputs": [],
      "stateMutability": "nonpayable",
      "type": "function"
    },
    {
      "inputs": [
        {
          "internalType": "uint256",
          "name": "",
          "type": "uint256"
        },
        {
          "internalType": "bytes32",
          "name": "",
          "type": "bytes32"
        },
        {
          "internalType": "uint256",
          "name": "",
          "type": "uint256"
        }
      ],
      "name": "sellOrder",
      "outputs": [
        {
          "internalType": "uint256",
          "name": "Id",
          "type": "uint256"
        },
        {
          "internalType": "address",
          "name": "Trader",
          "type": "address"
        },
        {
          "internalType": "bool",
          "name": "buyOrder",
          "type": "bool"
        },
        {
          "internalType": "uint256",
          "name": "amount",
          "type": "uint256"
        },
        {
          "internalType": "uint256",
          "name": "price",
          "type": "uint256"
        },
        {
          "internalType": "bytes32",
          "name": "Tiker",
          "type": "bytes32"
        },
        {
          "internalType": "bool",
          "name": "execute",
          "type": "bool"
        }
      ],
      "stateMutability": "view",
      "type": "function"
    },
    {
      "inputs": [
        {
          "internalType": "address",
          "name": "newOwner",
          "type": "address"
        }
      ],
      "name": "transferOwnership",
      "outputs": [],
      "stateMutability": "nonpayable",
      "type": "function"
    },
    {
      "inputs": [
        {
          "internalType": "uint256",
          "name": "_amount",
          "type": "uint256"
        },
        {
          "internalType": "bytes32",
          "name": "_tiker",
          "type": "bytes32"
        }
      ],
      "name": "withdraw",
      "outputs": [],
      "stateMutability": "nonpayable",
      "type": "function"
    },
    {
      "inputs": [
        {
          "internalType": "bytes32",
          "name": "_tiker",
          "type": "bytes32"
        },
        {
          "internalType": "enum Dex2.Side",
          "name": "_side",
          "type": "uint8"
        }
      ],
      "name": "getOrderBook",
      "outputs": [
        {
          "components": [
            {
              "internalType": "uint256",
              "name": "Id",
              "type": "uint256"
            },
            {
              "internalType": "address",
              "name": "Trader",
              "type": "address"
            },
            {
              "internalType": "bool",
              "name": "buyOrder",
              "type": "bool"
            },
            {
              "internalType": "uint256",
              "name": "amount",
              "type": "uint256"
            },
            {
              "internalType": "uint256",
              "name": "price",
              "type": "uint256"
            },
            {
              "internalType": "bytes32",
              "name": "Tiker",
              "type": "bytes32"
            },
            {
              "internalType": "bool",
              "name": "execute",
              "type": "bool"
            }
          ],
          "internalType": "struct Dex2.Order[]",
          "name": "",
          "type": "tuple[]"
        }
      ],
      "stateMutability": "view",
      "type": "function"
    },
    {
      "inputs": [
        {
          "internalType": "bool",
          "name": "_buyorder",
          "type": "bool"
        },
        {
          "internalType": "uint256",
          "name": "_amount",
          "type": "uint256"
        },
        {
          "internalType": "uint256",
          "name": "_price",
          "type": "uint256"
        },
        {
          "internalType": "bytes32",
          "name": "_tiker",
          "type": "bytes32"
        },
        {
          "internalType": "enum Dex2.Side",
          "name": "_side",
          "type": "uint8"
        },
        {
          "internalType": "bytes32",
          "name": "_tikerSell",
          "type": "bytes32"
        }
      ],
      "name": "createLimitOrder",
      "outputs": [],
      "stateMutability": "nonpayable",
      "type": "function"
    },
    {
      "inputs": [
        {
          "internalType": "uint256",
          "name": "_price",
          "type": "uint256"
        },
        {
          "internalType": "bytes32",
          "name": "_tiker",
          "type": "bytes32"
        }
      ],
      "name": "setprice",
      "outputs": [],
      "stateMutability": "nonpayable",
      "type": "function"
    }
  ],
  "bytecode": "0x60806040523480156200001157600080fd5b5060016000819055506200003a6200002e6200004060201b60201c565b6200004860201b60201c565b6200010e565b600033905090565b6000600160009054906101000a900473ffffffffffffffffffffffffffffffffffffffff16905081600160006101000a81548173ffffffffffffffffffffffffffffffffffffffff021916908373ffffffffffffffffffffffffffffffffffffffff1602179055508173ffffffffffffffffffffffffffffffffffffffff168173ffffffffffffffffffffffffffffffffffffffff167f8be0079c531659141344cd1fd0a4f28419497f9722a3daafe3b4186f6b6457e060405160405180910390a35050565b6124fe806200011e6000396000f3fe6080604052600436106100fe5760003560e01c80638da5cb5b11610095578063acc02df911610064578063acc02df914610345578063b5aaf23214610388578063ba58ea68146103b1578063c9630cb0146103ee578063f2fde38b14610417576100fe565b80638da5cb5b1461028b5780638e739461146102b65780639776aacf146102f3578063a8d2021a1461031c576100fe565b80635748e433116100d15780635748e433146101ca578063715018a6146101f3578063789b102d1461020a5780638a4c340e14610248576100fe565b806303a53595146101035780631f14df6914610140578063439370b11461017d5780634db262d714610187575b600080fd5b34801561010f57600080fd5b5061012a60048036038101906101259190611bdd565b610440565b60405161013791906120b6565b60405180910390f35b34801561014c57600080fd5b50610167600480360381019061016291906119ff565b610464565b60405161017491906121da565b60405180910390f35b610185610489565b005b34801561019357600080fd5b506101ae60048036038101906101a99190611c42565b61055f565b6040516101c197969594939291906121f5565b60405180910390f35b3480156101d657600080fd5b506101f160048036038101906101ec9190611a64565b610605565b005b3480156101ff57600080fd5b50610208610b74565b005b34801561021657600080fd5b50610231600480360381019061022c9190611aed565b610bfc565b60405161023f9291906120d1565b60405180910390f35b34801561025457600080fd5b5061026f600480360381019061026a9190611c42565b610c40565b60405161028297969594939291906121f5565b60405180910390f35b34801561029757600080fd5b506102a0610ce6565b6040516102ad9190612019565b60405180910390f35b3480156102c257600080fd5b506102dd60048036038101906102d89190611aed565b610d10565b6040516102ea91906121da565b60405180910390f35b3480156102ff57600080fd5b5061031a60048036038101906103159190611b16565b610d6a565b005b34801561032857600080fd5b50610343600480360381019061033e9190611c06565b610efb565b005b34801561035157600080fd5b5061036c60048036038101906103679190611b8e565b611270565b60405161037f97969594939291906121f5565b60405180910390f35b34801561039457600080fd5b506103af60048036038101906103aa9190611c06565b611316565b005b3480156103bd57600080fd5b506103d860048036038101906103d39190611b52565b6113ae565b6040516103e59190612094565b60405180910390f35b3480156103fa57600080fd5b5061041560048036038101906104109190611c06565b61151e565b005b34801561042357600080fd5b5061043e600480360381019061043991906119d6565b611792565b005b6003818154811061045057600080fd5b906000526020600020016000915090505481565b6004602052816000526040600020602052806000526040600020600091509150505481565b34600460003373ffffffffffffffffffffffffffffffffffffffff1673ffffffffffffffffffffffffffffffffffffffff16815260200190815260200160002060007f45544800000000000000000000000000000000000000000000000000000000008152602001908152602001600020600082825461050991906122ae565b92505081905550343373ffffffffffffffffffffffffffffffffffffffff167fb639aeb5bba5736e927320306313a31c4c065c554372450304b4f27263f90e576040516105559061217a565b60405180910390a3565b6007602052826000526040600020602052816000526040600020818154811061058757600080fd5b906000526020600020906006020160009250925050508060000154908060010160009054906101000a900473ffffffffffffffffffffffffffffffffffffffff16908060010160149054906101000a900460ff16908060020154908060030154908060040154908060050160009054906101000a900460ff16905087565b82600073ffffffffffffffffffffffffffffffffffffffff166002600083815260200190815260200160002060010160009054906101000a900473ffffffffffffffffffffffffffffffffffffffff1673ffffffffffffffffffffffffffffffffffffffff1614156106ac576040517f08c379a00000000000000000000000000000000000000000000000000000000081526004016106a3906121ba565b60405180910390fd5b60006040518060e0016040528060055481526020013373ffffffffffffffffffffffffffffffffffffffff168152602001891515815260200188815260200187815260200186815260200160001515815250905060056000815480929190610713906123e4565b919050555085876107249190612304565b600460003373ffffffffffffffffffffffffffffffffffffffff1673ffffffffffffffffffffffffffffffffffffffff16815260200190815260200160002060008581526020019081526020016000205410156107b6576040517f08c379a00000000000000000000000000000000000000000000000000000000081526004016107ad9061211a565b60405180910390fd5b600660008681526020019081526020016000206000856001811115610804577f4e487b7100000000000000000000000000000000000000000000000000000000600052602160045260246000fd5b81526020019081526020016000208190806001815401808255809150506001900390600052602060002090600602016000909190919091506000820151816000015560208201518160010160006101000a81548173ffffffffffffffffffffffffffffffffffffffff021916908373ffffffffffffffffffffffffffffffffffffffff16021790555060408201518160010160146101000a81548160ff021916908315150217905550606082015181600201556080820151816003015560a0820151816004015560c08201518160050160006101000a81548160ff0219169083151502179055505050836001811115610926577f4e487b7100000000000000000000000000000000000000000000000000000000600052602160045260246000fd5b60006001811115610960577f4e487b7100000000000000000000000000000000000000000000000000000000600052602160045260246000fd5b1415610a6a576007600087815260200190815260200160002060008681526020019081526020016000208190806001815401808255809150506001900390600052602060002090600602016000909190919091506000820151816000015560208201518160010160006101000a81548173ffffffffffffffffffffffffffffffffffffffff021916908373ffffffffffffffffffffffffffffffffffffffff16021790555060408201518160010160146101000a81548160ff021916908315150217905550606082015181600201556080820151816003015560a0820151816004015560c08201518160050160006101000a81548160ff0219169083151502179055505050610b6a565b6008600087815260200190815260200160002060008681526020019081526020016000208190806001815401808255809150506001900390600052602060002090600602016000909190919091506000820151816000015560208201518160010160006101000a81548173ffffffffffffffffffffffffffffffffffffffff021916908373ffffffffffffffffffffffffffffffffffffffff16021790555060408201518160010160146101000a81548160ff021916908315150217905550606082015181600201556080820151816003015560a0820151816004015560c08201518160050160006101000a81548160ff02191690831515021790555050505b5050505050505050565b610b7c61188a565b73ffffffffffffffffffffffffffffffffffffffff16610b9a610ce6565b73ffffffffffffffffffffffffffffffffffffffff1614610bf0576040517f08c379a0000000000000000000000000000000000000000000000000000000008152600401610be79061213a565b60405180910390fd5b610bfa6000611892565b565b60026020528060005260406000206000915090508060000154908060010160009054906101000a900473ffffffffffffffffffffffffffffffffffffffff16905082565b60086020528260005260406000206020528160005260406000208181548110610c6857600080fd5b906000526020600020906006020160009250925050508060000154908060010160009054906101000a900473ffffffffffffffffffffffffffffffffffffffff16908060010160149054906101000a900460ff16908060020154908060030154908060040154908060050160009054906101000a900460ff16905087565b6000600160009054906101000a900473ffffffffffffffffffffffffffffffffffffffff16905090565b6000600460003373ffffffffffffffffffffffffffffffffffffffff1673ffffffffffffffffffffffffffffffffffffffff1681526020019081526020016000206000838152602001908152602001600020549050919050565b60026000541415610db0576040517f08c379a0000000000000000000000000000000000000000000000000000000008152600401610da79061219a565b60405180910390fd5b6002600081905550610dc061188a565b73ffffffffffffffffffffffffffffffffffffffff16610dde610ce6565b73ffffffffffffffffffffffffffffffffffffffff1614610e34576040517f08c379a0000000000000000000000000000000000000000000000000000000008152600401610e2b9061213a565b60405180910390fd5b60405180604001604052808381526020018273ffffffffffffffffffffffffffffffffffffffff16815250600260008481526020019081526020016000206000820151816000015560208201518160010160006101000a81548173ffffffffffffffffffffffffffffffffffffffff021916908373ffffffffffffffffffffffffffffffffffffffff160217905550905050600382908060018154018082558091505060019003906000526020600020016000909190919091505560016000819055505050565b60026000541415610f41576040517f08c379a0000000000000000000000000000000000000000000000000000000008152600401610f389061219a565b60405180910390fd5b600260008190555080600073ffffffffffffffffffffffffffffffffffffffff166002600083815260200190815260200160002060010160009054906101000a900473ffffffffffffffffffffffffffffffffffffffff1673ffffffffffffffffffffffffffffffffffffffff161415610ff0576040517f08c379a0000000000000000000000000000000000000000000000000000000008152600401610fe7906121ba565b60405180910390fd5b600073ffffffffffffffffffffffffffffffffffffffff166002600084815260200190815260200160002060010160009054906101000a900473ffffffffffffffffffffffffffffffffffffffff1673ffffffffffffffffffffffffffffffffffffffff16141561106057600080fd5b82600460003373ffffffffffffffffffffffffffffffffffffffff1673ffffffffffffffffffffffffffffffffffffffff16815260200190815260200160002060008481526020019081526020016000205410156110f3576040517f08c379a00000000000000000000000000000000000000000000000000000000081526004016110ea9061215a565b60405180910390fd5b82600460003373ffffffffffffffffffffffffffffffffffffffff1673ffffffffffffffffffffffffffffffffffffffff16815260200190815260200160002060008481526020019081526020016000206000828254611153919061235e565b925050819055506002600083815260200190815260200160002060010160009054906101000a900473ffffffffffffffffffffffffffffffffffffffff1673ffffffffffffffffffffffffffffffffffffffff1663a9059cbb33856040518363ffffffff1660e01b81526004016111cb92919061206b565b602060405180830381600087803b1580156111e557600080fd5b505af11580156111f9573d6000803e3d6000fd5b505050506040513d601f19601f8201168201806040525081019061121d9190611a3b565b5082823373ffffffffffffffffffffffffffffffffffffffff167f063577528b6a04e7baf0209a367b8f3015ba3ef537417422d911d6549c2f04f060405160405180910390a45060016000819055505050565b6006602052826000526040600020602052816000526040600020818154811061129857600080fd5b906000526020600020906006020160009250925050508060000154908060010160009054906101000a900473ffffffffffffffffffffffffffffffffffffffff16908060010160149054906101000a900460ff16908060020154908060030154908060040154908060050160009054906101000a900460ff16905087565b61131e61188a565b73ffffffffffffffffffffffffffffffffffffffff1661133c610ce6565b73ffffffffffffffffffffffffffffffffffffffff1614611392576040517f08c379a00000000000000000000000000000000000000000000000000000000081526004016113899061213a565b60405180910390fd5b8160096000838152602001908152602001600020819055505050565b60606006600084815260200190815260200160002060008360018111156113fe577f4e487b7100000000000000000000000000000000000000000000000000000000600052602160045260246000fd5b8152602001908152602001600020805480602002602001604051908101604052809291908181526020016000905b8282101561151257838290600052602060002090600602016040518060e0016040529081600082015481526020016001820160009054906101000a900473ffffffffffffffffffffffffffffffffffffffff1673ffffffffffffffffffffffffffffffffffffffff1673ffffffffffffffffffffffffffffffffffffffff1681526020016001820160149054906101000a900460ff161515151581526020016002820154815260200160038201548152602001600482015481526020016005820160009054906101000a900460ff1615151515815250508152602001906001019061142c565b50505050905092915050565b60026000541415611564576040517f08c379a000000000000000000000000000000000000000000000000000000000815260040161155b9061219a565b60405180910390fd5b600260008190555080600073ffffffffffffffffffffffffffffffffffffffff166002600083815260200190815260200160002060010160009054906101000a900473ffffffffffffffffffffffffffffffffffffffff1673ffffffffffffffffffffffffffffffffffffffff161415611613576040517f08c379a000000000000000000000000000000000000000000000000000000000815260040161160a906121ba565b60405180910390fd5b6002600083815260200190815260200160002060010160009054906101000a900473ffffffffffffffffffffffffffffffffffffffff1673ffffffffffffffffffffffffffffffffffffffff166323b872dd3330866040518463ffffffff1660e01b815260040161168693929190612034565b602060405180830381600087803b1580156116a057600080fd5b505af11580156116b4573d6000803e3d6000fd5b505050506040513d601f19601f820116820180604052508101906116d89190611a3b565b5082600460003373ffffffffffffffffffffffffffffffffffffffff1673ffffffffffffffffffffffffffffffffffffffff1681526020019081526020016000206000848152602001908152602001600020600082825461173991906122ae565b9250508190555082823373ffffffffffffffffffffffffffffffffffffffff167f68205ba09fddbae42e0f29dad87871950d66bc23934c58e1504869c99cd692f560405160405180910390a45060016000819055505050565b61179a61188a565b73ffffffffffffffffffffffffffffffffffffffff166117b8610ce6565b73ffffffffffffffffffffffffffffffffffffffff161461180e576040517f08c379a00000000000000000000000000000000000000000000000000000000081526004016118059061213a565b60405180910390fd5b600073ffffffffffffffffffffffffffffffffffffffff168173ffffffffffffffffffffffffffffffffffffffff16141561187e576040517f08c379a0000000000000000000000000000000000000000000000000000000008152600401611875906120fa565b60405180910390fd5b61188781611892565b50565b600033905090565b6000600160009054906101000a900473ffffffffffffffffffffffffffffffffffffffff16905081600160006101000a81548173ffffffffffffffffffffffffffffffffffffffff021916908373ffffffffffffffffffffffffffffffffffffffff1602179055508173ffffffffffffffffffffffffffffffffffffffff168173ffffffffffffffffffffffffffffffffffffffff167f8be0079c531659141344cd1fd0a4f28419497f9722a3daafe3b4186f6b6457e060405160405180910390a35050565b6000813590506119678161245c565b92915050565b60008135905061197c81612473565b92915050565b60008151905061199181612473565b92915050565b6000813590506119a68161248a565b92915050565b6000813590506119bb816124a1565b92915050565b6000813590506119d0816124b1565b92915050565b6000602082840312156119e857600080fd5b60006119f684828501611958565b91505092915050565b60008060408385031215611a1257600080fd5b6000611a2085828601611958565b9250506020611a3185828601611997565b9150509250929050565b600060208284031215611a4d57600080fd5b6000611a5b84828501611982565b91505092915050565b60008060008060008060c08789031215611a7d57600080fd5b6000611a8b89828a0161196d565b9650506020611a9c89828a016119c1565b9550506040611aad89828a016119c1565b9450506060611abe89828a01611997565b9350506080611acf89828a016119ac565b92505060a0611ae089828a01611997565b9150509295509295509295565b600060208284031215611aff57600080fd5b6000611b0d84828501611997565b91505092915050565b60008060408385031215611b2957600080fd5b6000611b3785828601611997565b9250506020611b4885828601611958565b9150509250929050565b60008060408385031215611b6557600080fd5b6000611b7385828601611997565b9250506020611b84858286016119ac565b9150509250929050565b600080600060608486031215611ba357600080fd5b6000611bb186828701611997565b9350506020611bc2868287016119c1565b9250506040611bd3868287016119c1565b9150509250925092565b600060208284031215611bef57600080fd5b6000611bfd848285016119c1565b91505092915050565b60008060408385031215611c1957600080fd5b6000611c27858286016119c1565b9250506020611c3885828601611997565b9150509250929050565b600080600060608486031215611c5757600080fd5b6000611c65868287016119c1565b9350506020611c7686828701611997565b9250506040611c87868287016119c1565b9150509250925092565b6000611c9d8383611f6d565b60e08301905092915050565b611cb281612392565b82525050565b611cc181612392565b82525050565b6000611cd282612274565b611cdc818561228c565b9350611ce783612264565b8060005b83811015611d18578151611cff8882611c91565b9750611d0a8361227f565b925050600181019050611ceb565b5085935050505092915050565b611d2e816123a4565b82525050565b611d3d816123a4565b82525050565b611d4c816123b0565b82525050565b611d5b816123b0565b82525050565b6000611d6e60268361229d565b91507f4f776e61626c653a206e6577206f776e657220697320746865207a65726f206160008301527f64647265737300000000000000000000000000000000000000000000000000006020830152604082019050919050565b6000611dd460228361229d565b91507f62616c616e636520696e737566666963656e7420666f722074686973206f726460008301527f65720000000000000000000000000000000000000000000000000000000000006020830152604082019050919050565b6000611e3a60208361229d565b91507f4f776e61626c653a2063616c6c6572206973206e6f7420746865206f776e65726000830152602082019050919050565b6000611e7a60138361229d565b91507f62616c616e636520696e737566666963656e74000000000000000000000000006000830152602082019050919050565b6000611eba60038361229d565b91507f45544800000000000000000000000000000000000000000000000000000000006000830152602082019050919050565b6000611efa601f8361229d565b91507f5265656e7472616e637947756172643a207265656e7472616e742063616c6c006000830152602082019050919050565b6000611f3a60148361229d565b91507f746f6b656e20646f6573206e6f742065786973740000000000000000000000006000830152602082019050919050565b60e082016000820151611f836000850182611ffb565b506020820151611f966020850182611ca9565b506040820151611fa96040850182611d25565b506060820151611fbc6060850182611ffb565b506080820151611fcf6080850182611ffb565b5060a0820151611fe260a0850182611d43565b5060c0820151611ff560c0850182611d25565b50505050565b612004816123da565b82525050565b612013816123da565b82525050565b600060208201905061202e6000830184611cb8565b92915050565b60006060820190506120496000830186611cb8565b6120566020830185611cb8565b612063604083018461200a565b949350505050565b60006040820190506120806000830185611cb8565b61208d602083018461200a565b9392505050565b600060208201905081810360008301526120ae8184611cc7565b905092915050565b60006020820190506120cb6000830184611d52565b92915050565b60006040820190506120e66000830185611d52565b6120f36020830184611cb8565b9392505050565b6000602082019050818103600083015261211381611d61565b9050919050565b6000602082019050818103600083015261213381611dc7565b9050919050565b6000602082019050818103600083015261215381611e2d565b9050919050565b6000602082019050818103600083015261217381611e6d565b9050919050565b6000602082019050818103600083015261219381611ead565b9050919050565b600060208201905081810360008301526121b381611eed565b9050919050565b600060208201905081810360008301526121d381611f2d565b9050919050565b60006020820190506121ef600083018461200a565b92915050565b600060e08201905061220a600083018a61200a565b6122176020830189611cb8565b6122246040830188611d34565b612231606083018761200a565b61223e608083018661200a565b61224b60a0830185611d52565b61225860c0830184611d34565b98975050505050505050565b6000819050602082019050919050565b600081519050919050565b6000602082019050919050565b600082825260208201905092915050565b600082825260208201905092915050565b60006122b9826123da565b91506122c4836123da565b9250827fffffffffffffffffffffffffffffffffffffffffffffffffffffffffffffffff038211156122f9576122f861242d565b5b828201905092915050565b600061230f826123da565b915061231a836123da565b9250817fffffffffffffffffffffffffffffffffffffffffffffffffffffffffffffffff04831182151516156123535761235261242d565b5b828202905092915050565b6000612369826123da565b9150612374836123da565b9250828210156123875761238661242d565b5b828203905092915050565b600061239d826123ba565b9050919050565b60008115159050919050565b6000819050919050565b600073ffffffffffffffffffffffffffffffffffffffff82169050919050565b6000819050919050565b60006123ef826123da565b91507fffffffffffffffffffffffffffffffffffffffffffffffffffffffffffffffff8214156124225761242161242d565b5b600182019050919050565b7f4e487b7100000000000000000000000000000000000000000000000000000000600052601160045260246000fd5b61246581612392565b811461247057600080fd5b50565b61247c816123a4565b811461248757600080fd5b50565b612493816123b0565b811461249e57600080fd5b50565b600281106124ae57600080fd5b50565b6124ba816123da565b81146124c557600080fd5b5056fea2646970667358221220d5f8d5edf36b32584782dd8baed2b0f7b90fb4f44ae12ddc2dd9bcd2b094c38c64736f6c63430008000033",
  "immutableReferences": {},
  "source": "// SPDX-License-Identifier: Leluk911\npragma solidity 0.8.0;\npragma experimental ABIEncoderV2;\n\nimport \"./wallet.sol\";\n\ncontract Dex2 is Wallet {\n    enum Side {\n        BUY,\n        SELL\n    }\n\n    struct Order {\n        uint256 Id;\n        address Trader;\n        bool buyOrder;\n        uint256 amount;\n        uint256 price;\n        bytes32 Tiker;\n        bool execute;\n    }\n\n    uint256 id;\n    mapping(bytes32 => mapping(uint256 => Order[])) public OrderBook;\n    mapping(uint256 => mapping(bytes32 => Order[])) public buyOrder;\n    mapping(uint256 => mapping(bytes32 => Order[])) public sellOrder;\n    mapping(bytes32 => uint256) priceTiker;\n\n    function getOrderBook(bytes32 _tiker, Side _side)\n        external\n        view\n        returns (Order[] memory)\n    {\n        return OrderBook[_tiker][uint256(_side)];\n    }\n\n    function createLimitOrder(\n        bool _buyorder,\n        uint256 _amount,\n        uint256 _price,\n        bytes32 _tiker,\n        Side _side,\n        bytes32 _tikerSell\n    ) external tokenExist(_tiker) {\n        Order memory newOrder = Order(\n            id,\n            msg.sender,\n            _buyorder,\n            _amount,\n            _price,\n            _tiker,\n            false\n        );\n        id++;\n        require(\n            balances[msg.sender][_tikerSell] >= _amount * _price,\n            \"balance insufficent for this order\"\n        );\n\n        OrderBook[_tiker][uint256(_side)].push(newOrder);\n        if (Side.BUY == _side) {\n            buyOrder[_price][_tiker].push(newOrder);\n        } else {\n            sellOrder[_price][_tiker].push(newOrder);\n        }\n    }\n\n    function setprice(uint256 _price, bytes32 _tiker) external onlyOwner {\n        priceTiker[_tiker] = _price;\n    }\n\n    function executeOrder(uint256 _price, bytes32 _tiker) internal {}\n}\n",
  "sourcePath": "/Users/lucianodinoia/Desktop/moralis Academy/Ethereum Smart Contract Programming 201/Build Dex step by step/contracts/dex2.sol",
  "compiler": {
    "name": "solc",
    "version": "0.8.0+commit.c7dfd78e.Emscripten.clang"
  },
  "schemaVersion": "3.4.4",
  "updatedAt": "2022-02-25T17:43:27.262Z",
  "devdoc": {
    "kind": "dev",
    "methods": {
      "owner()": {
        "details": "Returns the address of the current owner."
      },
      "renounceOwnership()": {
        "details": "Leaves the contract without owner. It will not be possible to call `onlyOwner` functions anymore. Can only be called by the current owner. NOTE: Renouncing ownership will leave the contract without an owner, thereby removing any functionality that is only available to the owner."
      },
      "transferOwnership(address)": {
        "details": "Transfers ownership of the contract to a new account (`newOwner`). Can only be called by the current owner."
      }
    },
    "version": 1
  },
  "userdoc": {
    "kind": "user",
    "methods": {},
    "version": 1
  }
}