{
  "contractName": "Wallet",
  "abi": [
    {
      "anonymous": false,
      "inputs": [
        {
          "indexed": true,
          "internalType": "address",
          "name": "previousOwner",
          "type": "address"
        },
        {
          "indexed": true,
          "internalType": "address",
          "name": "newOwner",
          "type": "address"
        }
      ],
      "name": "OwnershipTransferred",
      "type": "event"
    },
    {
      "anonymous": false,
      "inputs": [
        {
          "indexed": true,
          "internalType": "address",
          "name": "",
          "type": "address"
        },
        {
          "indexed": false,
          "internalType": "string",
          "name": "",
          "type": "string"
        },
        {
          "indexed": true,
          "internalType": "uint256",
          "name": "",
          "type": "uint256"
        }
      ],
      "name": "depositETH",
      "type": "event"
    },
    {
      "anonymous": false,
      "inputs": [
        {
          "indexed": true,
          "internalType": "address",
          "name": "",
          "type": "address"
        },
        {
          "indexed": true,
          "internalType": "bytes32",
          "name": "",
          "type": "bytes32"
        },
        {
          "indexed": true,
          "internalType": "uint256",
          "name": "",
          "type": "uint256"
        }
      ],
      "name": "depositToken",
      "type": "event"
    },
    {
      "anonymous": false,
      "inputs": [
        {
          "indexed": true,
          "internalType": "address",
          "name": "",
          "type": "address"
        },
        {
          "indexed": true,
          "internalType": "bytes32",
          "name": "",
          "type": "bytes32"
        },
        {
          "indexed": true,
          "internalType": "uint256",
          "name": "",
          "type": "uint256"
        }
      ],
      "name": "withdrawToken",
      "type": "event"
    },
    {
      "inputs": [
        {
          "internalType": "uint256",
          "name": "",
          "type": "uint256"
        }
      ],
      "name": "TokenList",
      "outputs": [
        {
          "internalType": "bytes32",
          "name": "",
          "type": "bytes32"
        }
      ],
      "stateMutability": "view",
      "type": "function"
    },
    {
      "inputs": [
        {
          "internalType": "bytes32",
          "name": "",
          "type": "bytes32"
        }
      ],
      "name": "TokenMapping",
      "outputs": [
        {
          "internalType": "bytes32",
          "name": "tiker",
          "type": "bytes32"
        },
        {
          "internalType": "address",
          "name": "tokenAddress",
          "type": "address"
        }
      ],
      "stateMutability": "view",
      "type": "function"
    },
    {
      "inputs": [
        {
          "internalType": "address",
          "name": "",
          "type": "address"
        },
        {
          "internalType": "bytes32",
          "name": "",
          "type": "bytes32"
        }
      ],
      "name": "balances",
      "outputs": [
        {
          "internalType": "uint256",
          "name": "",
          "type": "uint256"
        }
      ],
      "stateMutability": "view",
      "type": "function"
    },
    {
      "inputs": [],
      "name": "owner",
      "outputs": [
        {
          "internalType": "address",
          "name": "",
          "type": "address"
        }
      ],
      "stateMutability": "view",
      "type": "function"
    },
    {
      "inputs": [],
      "name": "renounceOwnership",
      "outputs": [],
      "stateMutability": "nonpayable",
      "type": "function"
    },
    {
      "inputs": [
        {
          "internalType": "address",
          "name": "newOwner",
          "type": "address"
        }
      ],
      "name": "transferOwnership",
      "outputs": [],
      "stateMutability": "nonpayable",
      "type": "function"
    },
    {
      "inputs": [
        {
          "internalType": "bytes32",
          "name": "_tiker",
          "type": "bytes32"
        },
        {
          "internalType": "address",
          "name": "_tokenAddress",
          "type": "address"
        }
      ],
      "name": "addToken",
      "outputs": [],
      "stateMutability": "nonpayable",
      "type": "function"
    },
    {
      "inputs": [
        {
          "internalType": "uint256",
          "name": "_amount",
          "type": "uint256"
        },
        {
          "internalType": "bytes32",
          "name": "_tiker",
          "type": "bytes32"
        }
      ],
      "name": "deposit",
      "outputs": [],
      "stateMutability": "nonpayable",
      "type": "function"
    },
    {
      "inputs": [
        {
          "internalType": "uint256",
          "name": "_amount",
          "type": "uint256"
        },
        {
          "internalType": "bytes32",
          "name": "_tiker",
          "type": "bytes32"
        }
      ],
      "name": "withdraw",
      "outputs": [],
      "stateMutability": "nonpayable",
      "type": "function"
    },
    {
      "inputs": [],
      "name": "depositEth",
      "outputs": [],
      "stateMutability": "payable",
      "type": "function"
    },
    {
      "inputs": [
        {
          "internalType": "bytes32",
          "name": "_tiker",
          "type": "bytes32"
        }
      ],
      "name": "getBalance",
      "outputs": [
        {
          "internalType": "uint256",
          "name": "",
          "type": "uint256"
        }
      ],
      "stateMutability": "view",
      "type": "function"
    }
  ],
  "bytecode": "0x608060405234801561001057600080fd5b50600160008190555061003561002a61003a60201b60201c565b61004260201b60201c565b610108565b600033905090565b6000600160009054906101000a900473ffffffffffffffffffffffffffffffffffffffff16905081600160006101000a81548173ffffffffffffffffffffffffffffffffffffffff021916908373ffffffffffffffffffffffffffffffffffffffff1602179055508173ffffffffffffffffffffffffffffffffffffffff168173ffffffffffffffffffffffffffffffffffffffff167f8be0079c531659141344cd1fd0a4f28419497f9722a3daafe3b4186f6b6457e060405160405180910390a35050565b6114fc806101176000396000f3fe60806040526004361061009c5760003560e01c80638da5cb5b116100645780638da5cb5b1461017a5780638e739461146101a55780639776aacf146101e2578063a8d2021a1461020b578063c9630cb014610234578063f2fde38b1461025d5761009c565b806303a53595146100a15780631f14df69146100de578063439370b11461011b578063715018a614610125578063789b102d1461013c575b600080fd5b3480156100ad57600080fd5b506100c860048036038101906100c39190610f7c565b610286565b6040516100d5919061122f565b60405180910390f35b3480156100ea57600080fd5b5061010560048036038101906101009190610eb2565b6102aa565b6040516101129190611333565b60405180910390f35b6101236102cf565b005b34801561013157600080fd5b5061013a6103a5565b005b34801561014857600080fd5b50610163600480360381019061015e9190610f17565b61042d565b60405161017192919061124a565b60405180910390f35b34801561018657600080fd5b5061018f610471565b60405161019c91906111b4565b60405180910390f35b3480156101b157600080fd5b506101cc60048036038101906101c79190610f17565b61049b565b6040516101d99190611333565b60405180910390f35b3480156101ee57600080fd5b5061020960048036038101906102049190610f40565b6104f5565b005b34801561021757600080fd5b50610232600480360381019061022d9190610fa5565b610686565b005b34801561024057600080fd5b5061025b60048036038101906102569190610fa5565b6109fb565b005b34801561026957600080fd5b50610284600480360381019061027f9190610e89565b610c6f565b005b6003818154811061029657600080fd5b906000526020600020016000915090505481565b6004602052816000526040600020602052806000526040600020600091509150505481565b34600460003373ffffffffffffffffffffffffffffffffffffffff1673ffffffffffffffffffffffffffffffffffffffff16815260200190815260200160002060007f45544800000000000000000000000000000000000000000000000000000000008152602001908152602001600020600082825461034f919061135f565b92505081905550343373ffffffffffffffffffffffffffffffffffffffff167fb639aeb5bba5736e927320306313a31c4c065c554372450304b4f27263f90e5760405161039b906112d3565b60405180910390a3565b6103ad610d67565b73ffffffffffffffffffffffffffffffffffffffff166103cb610471565b73ffffffffffffffffffffffffffffffffffffffff1614610421576040517f08c379a000000000000000000000000000000000000000000000000000000000815260040161041890611293565b60405180910390fd5b61042b6000610d6f565b565b60026020528060005260406000206000915090508060000154908060010160009054906101000a900473ffffffffffffffffffffffffffffffffffffffff16905082565b6000600160009054906101000a900473ffffffffffffffffffffffffffffffffffffffff16905090565b6000600460003373ffffffffffffffffffffffffffffffffffffffff1673ffffffffffffffffffffffffffffffffffffffff1681526020019081526020016000206000838152602001908152602001600020549050919050565b6002600054141561053b576040517f08c379a0000000000000000000000000000000000000000000000000000000008152600401610532906112f3565b60405180910390fd5b600260008190555061054b610d67565b73ffffffffffffffffffffffffffffffffffffffff16610569610471565b73ffffffffffffffffffffffffffffffffffffffff16146105bf576040517f08c379a00000000000000000000000000000000000000000000000000000000081526004016105b690611293565b60405180910390fd5b60405180604001604052808381526020018273ffffffffffffffffffffffffffffffffffffffff16815250600260008481526020019081526020016000206000820151816000015560208201518160010160006101000a81548173ffffffffffffffffffffffffffffffffffffffff021916908373ffffffffffffffffffffffffffffffffffffffff160217905550905050600382908060018154018082558091505060019003906000526020600020016000909190919091505560016000819055505050565b600260005414156106cc576040517f08c379a00000000000000000000000000000000000000000000000000000000081526004016106c3906112f3565b60405180910390fd5b600260008190555080600073ffffffffffffffffffffffffffffffffffffffff166002600083815260200190815260200160002060010160009054906101000a900473ffffffffffffffffffffffffffffffffffffffff1673ffffffffffffffffffffffffffffffffffffffff16141561077b576040517f08c379a000000000000000000000000000000000000000000000000000000000815260040161077290611313565b60405180910390fd5b600073ffffffffffffffffffffffffffffffffffffffff166002600084815260200190815260200160002060010160009054906101000a900473ffffffffffffffffffffffffffffffffffffffff1673ffffffffffffffffffffffffffffffffffffffff1614156107eb57600080fd5b82600460003373ffffffffffffffffffffffffffffffffffffffff1673ffffffffffffffffffffffffffffffffffffffff168152602001908152602001600020600084815260200190815260200160002054101561087e576040517f08c379a0000000000000000000000000000000000000000000000000000000008152600401610875906112b3565b60405180910390fd5b82600460003373ffffffffffffffffffffffffffffffffffffffff1673ffffffffffffffffffffffffffffffffffffffff168152602001908152602001600020600084815260200190815260200160002060008282546108de91906113b5565b925050819055506002600083815260200190815260200160002060010160009054906101000a900473ffffffffffffffffffffffffffffffffffffffff1673ffffffffffffffffffffffffffffffffffffffff1663a9059cbb33856040518363ffffffff1660e01b8152600401610956929190611206565b602060405180830381600087803b15801561097057600080fd5b505af1158015610984573d6000803e3d6000fd5b505050506040513d601f19601f820116820180604052508101906109a89190610eee565b5082823373ffffffffffffffffffffffffffffffffffffffff167f063577528b6a04e7baf0209a367b8f3015ba3ef537417422d911d6549c2f04f060405160405180910390a45060016000819055505050565b60026000541415610a41576040517f08c379a0000000000000000000000000000000000000000000000000000000008152600401610a38906112f3565b60405180910390fd5b600260008190555080600073ffffffffffffffffffffffffffffffffffffffff166002600083815260200190815260200160002060010160009054906101000a900473ffffffffffffffffffffffffffffffffffffffff1673ffffffffffffffffffffffffffffffffffffffff161415610af0576040517f08c379a0000000000000000000000000000000000000000000000000000000008152600401610ae790611313565b60405180910390fd5b6002600083815260200190815260200160002060010160009054906101000a900473ffffffffffffffffffffffffffffffffffffffff1673ffffffffffffffffffffffffffffffffffffffff166323b872dd3330866040518463ffffffff1660e01b8152600401610b63939291906111cf565b602060405180830381600087803b158015610b7d57600080fd5b505af1158015610b91573d6000803e3d6000fd5b505050506040513d601f19601f82011682018060405250810190610bb59190610eee565b5082600460003373ffffffffffffffffffffffffffffffffffffffff1673ffffffffffffffffffffffffffffffffffffffff16815260200190815260200160002060008481526020019081526020016000206000828254610c16919061135f565b9250508190555082823373ffffffffffffffffffffffffffffffffffffffff167f68205ba09fddbae42e0f29dad87871950d66bc23934c58e1504869c99cd692f560405160405180910390a45060016000819055505050565b610c77610d67565b73ffffffffffffffffffffffffffffffffffffffff16610c95610471565b73ffffffffffffffffffffffffffffffffffffffff1614610ceb576040517f08c379a0000000000000000000000000000000000000000000000000000000008152600401610ce290611293565b60405180910390fd5b600073ffffffffffffffffffffffffffffffffffffffff168173ffffffffffffffffffffffffffffffffffffffff161415610d5b576040517f08c379a0000000000000000000000000000000000000000000000000000000008152600401610d5290611273565b60405180910390fd5b610d6481610d6f565b50565b600033905090565b6000600160009054906101000a900473ffffffffffffffffffffffffffffffffffffffff16905081600160006101000a81548173ffffffffffffffffffffffffffffffffffffffff021916908373ffffffffffffffffffffffffffffffffffffffff1602179055508173ffffffffffffffffffffffffffffffffffffffff168173ffffffffffffffffffffffffffffffffffffffff167f8be0079c531659141344cd1fd0a4f28419497f9722a3daafe3b4186f6b6457e060405160405180910390a35050565b600081359050610e448161146a565b92915050565b600081519050610e5981611481565b92915050565b600081359050610e6e81611498565b92915050565b600081359050610e83816114af565b92915050565b600060208284031215610e9b57600080fd5b6000610ea984828501610e35565b91505092915050565b60008060408385031215610ec557600080fd5b6000610ed385828601610e35565b9250506020610ee485828601610e5f565b9150509250929050565b600060208284031215610f0057600080fd5b6000610f0e84828501610e4a565b91505092915050565b600060208284031215610f2957600080fd5b6000610f3784828501610e5f565b91505092915050565b60008060408385031215610f5357600080fd5b6000610f6185828601610e5f565b9250506020610f7285828601610e35565b9150509250929050565b600060208284031215610f8e57600080fd5b6000610f9c84828501610e74565b91505092915050565b60008060408385031215610fb857600080fd5b6000610fc685828601610e74565b9250506020610fd785828601610e5f565b9150509250929050565b610fea816113e9565b82525050565b610ff981611407565b82525050565b600061100c60268361134e565b91507f4f776e61626c653a206e6577206f776e657220697320746865207a65726f206160008301527f64647265737300000000000000000000000000000000000000000000000000006020830152604082019050919050565b600061107260208361134e565b91507f4f776e61626c653a2063616c6c6572206973206e6f7420746865206f776e65726000830152602082019050919050565b60006110b260138361134e565b91507f62616c616e636520696e737566666963656e74000000000000000000000000006000830152602082019050919050565b60006110f260038361134e565b91507f45544800000000000000000000000000000000000000000000000000000000006000830152602082019050919050565b6000611132601f8361134e565b91507f5265656e7472616e637947756172643a207265656e7472616e742063616c6c006000830152602082019050919050565b600061117260148361134e565b91507f746f6b656e20646f6573206e6f742065786973740000000000000000000000006000830152602082019050919050565b6111ae81611431565b82525050565b60006020820190506111c96000830184610fe1565b92915050565b60006060820190506111e46000830186610fe1565b6111f16020830185610fe1565b6111fe60408301846111a5565b949350505050565b600060408201905061121b6000830185610fe1565b61122860208301846111a5565b9392505050565b60006020820190506112446000830184610ff0565b92915050565b600060408201905061125f6000830185610ff0565b61126c6020830184610fe1565b9392505050565b6000602082019050818103600083015261128c81610fff565b9050919050565b600060208201905081810360008301526112ac81611065565b9050919050565b600060208201905081810360008301526112cc816110a5565b9050919050565b600060208201905081810360008301526112ec816110e5565b9050919050565b6000602082019050818103600083015261130c81611125565b9050919050565b6000602082019050818103600083015261132c81611165565b9050919050565b600060208201905061134860008301846111a5565b92915050565b600082825260208201905092915050565b600061136a82611431565b915061137583611431565b9250827fffffffffffffffffffffffffffffffffffffffffffffffffffffffffffffffff038211156113aa576113a961143b565b5b828201905092915050565b60006113c082611431565b91506113cb83611431565b9250828210156113de576113dd61143b565b5b828203905092915050565b60006113f482611411565b9050919050565b60008115159050919050565b6000819050919050565b600073ffffffffffffffffffffffffffffffffffffffff82169050919050565b6000819050919050565b7f4e487b7100000000000000000000000000000000000000000000000000000000600052601160045260246000fd5b611473816113e9565b811461147e57600080fd5b50565b61148a816113fb565b811461149557600080fd5b50565b6114a181611407565b81146114ac57600080fd5b50565b6114b881611431565b81146114c357600080fd5b5056fea2646970667358221220d34a268f5824def4c876f0db5a8027b7be2e7ed0d83c7b6b97f8225a2458b25964736f6c63430008000033",
  "immutableReferences": {},
  "source": "// SPDX-License-Identifier: Leluk911\npragma solidity 0.8.0;\n\nimport \"../node_modules/@openzeppelin/contracts/interfaces/IERC20.sol\";\nimport \"../node_modules/@openzeppelin/contracts/security/ReentrancyGuard.sol\";\nimport \"../node_modules/@openzeppelin/contracts/access/Ownable.sol\";\n\ncontract Wallet is ReentrancyGuard, Ownable {\n    event depositToken(address indexed, bytes32 indexed, uint256 indexed);\n    event withdrawToken(address indexed, bytes32 indexed, uint256 indexed);\n    event depositETH(address indexed, string, uint256 indexed);\n    // use this struct for store token in wallet\n    struct Token {\n        bytes32 tiker;\n        address tokenAddress;\n    }\n\n    mapping(bytes32 => Token) public TokenMapping;\n    // array for store Token for Token.tiker\n    bytes32[] public TokenList; // only list.. some information give in mapping TokenMapping\n\n    // duble mapping for balance every Token in wallet add\n    mapping(address => mapping(bytes32 => uint256)) public balances;\n\n    modifier tokenExist(bytes32 ticker) {\n        require(\n            TokenMapping[ticker].tokenAddress != address(0),\n            \"token does not exist\"\n        );\n        _;\n    }\n\n    function addToken(bytes32 _tiker, address _tokenAddress)\n        external\n        nonReentrant\n        onlyOwner\n    {\n        // add token information i wallet\n        TokenMapping[_tiker] = Token(_tiker, _tokenAddress);\n        // push only _tiker.. mapping need for take address.\n        TokenList.push(_tiker);\n    }\n\n    function deposit(uint256 _amount, bytes32 _tiker)\n        external\n        nonReentrant\n        tokenExist(_tiker)\n    {\n        // before approve this spend\n        IERC20(TokenMapping[_tiker].tokenAddress).transferFrom(\n            msg.sender,\n            address(this),\n            _amount\n        );\n        balances[msg.sender][_tiker] += _amount;\n        emit depositToken(msg.sender, _tiker, _amount);\n    }\n\n    function withdraw(uint256 _amount, bytes32 _tiker)\n        external\n        nonReentrant\n        tokenExist(_tiker)\n    {\n        require(TokenMapping[_tiker].tokenAddress != address(0)); // address assigne not 0X00000\n        require(balances[msg.sender][_tiker] >= _amount, \"balance insufficent\"); // check balance before\n        balances[msg.sender][_tiker] -= _amount; //update balance befor transfer\n        IERC20(TokenMapping[_tiker].tokenAddress).transfer(msg.sender, _amount); // transfer\n        emit withdrawToken(msg.sender, _tiker, _amount);\n    }\n\n    function depositEth() external payable {\n        balances[msg.sender][\"ETH\"] += msg.value;\n        emit depositETH(msg.sender, \"ETH\", msg.value);\n    }\n\n    function getBalance(bytes32 _tiker) external view returns (uint256) {\n        return balances[msg.sender][_tiker];\n    }\n}\n",
  "sourcePath": "/Users/lucianodinoia/Desktop/moralis Academy/Ethereum Smart Contract Programming 201/Build Dex step by step/contracts/wallet.sol",
  "compiler": {
    "name": "solc",
    "version": "0.8.0+commit.c7dfd78e.Emscripten.clang"
  },
  "schemaVersion": "3.4.4",
  "updatedAt": "2022-02-25T17:43:27.290Z",
  "devdoc": {
    "kind": "dev",
    "methods": {
      "owner()": {
        "details": "Returns the address of the current owner."
      },
      "renounceOwnership()": {
        "details": "Leaves the contract without owner. It will not be possible to call `onlyOwner` functions anymore. Can only be called by the current owner. NOTE: Renouncing ownership will leave the contract without an owner, thereby removing any functionality that is only available to the owner."
      },
      "transferOwnership(address)": {
        "details": "Transfers ownership of the contract to a new account (`newOwner`). Can only be called by the current owner."
      }
    },
    "version": 1
  },
  "userdoc": {
    "kind": "user",
    "methods": {},
    "version": 1
  }
}